{
  "contractName": "myTodoList",
  "abi": [
    {
      "constant": true,
      "inputs": [],
      "name": "TasksCount",
      "outputs": [
        {
          "name": "",
          "type": "uint256"
        }
      ],
      "payable": false,
      "stateMutability": "view",
      "type": "function",
      "signature": "0xb80356c3"
    },
    {
      "constant": true,
      "inputs": [
        {
          "name": "",
          "type": "uint256"
        }
      ],
      "name": "Tasks",
      "outputs": [
        {
          "name": "id",
          "type": "uint256"
        },
        {
          "name": "content",
          "type": "string"
        },
        {
          "name": "completed",
          "type": "bool"
        }
      ],
      "payable": false,
      "stateMutability": "view",
      "type": "function",
      "signature": "0xf4b2a46e"
    },
    {
      "inputs": [],
      "payable": false,
      "stateMutability": "nonpayable",
      "type": "constructor",
      "signature": "constructor"
    },
    {
      "constant": false,
      "inputs": [
        {
          "name": "_content",
          "type": "string"
        }
      ],
      "name": "addTask",
      "outputs": [],
      "payable": false,
      "stateMutability": "nonpayable",
      "type": "function",
      "signature": "0x67238562"
    },
    {
      "constant": false,
      "inputs": [
        {
          "name": "_contentClicked",
          "type": "string"
        }
      ],
      "name": "deductTask",
      "outputs": [],
      "payable": false,
      "stateMutability": "nonpayable",
      "type": "function",
      "signature": "0x51b3503b"
    }
  ],
  "bytecode": "0x608060405260006001553480156200001657600080fd5b50620000666040805190810160405280600981526020017f6d792031207461736b000000000000000000000000000000000000000000000081525062000333640100000000026401000000009004565b620000b56040805190810160405280600981526020017f6d792032207461736b000000000000000000000000000000000000000000000081525062000333640100000000026401000000009004565b620001046040805190810160405280600981526020017f6d792033207461736b000000000000000000000000000000000000000000000081525062000333640100000000026401000000009004565b620001536040805190810160405280600981526020017f6d792034207461736b000000000000000000000000000000000000000000000081525062000333640100000000026401000000009004565b620001a26040805190810160405280600981526020017f6d792035207461736b000000000000000000000000000000000000000000000081525062000333640100000000026401000000009004565b620001f16040805190810160405280600981526020017f6d792036207461736b000000000000000000000000000000000000000000000081525062000333640100000000026401000000009004565b620002406040805190810160405280600981526020017f6d792037207461736b000000000000000000000000000000000000000000000081525062000333640100000000026401000000009004565b6200028f6040805190810160405280600981526020017f6d792038207461736b000000000000000000000000000000000000000000000081525062000333640100000000026401000000009004565b620002de6040805190810160405280600981526020017f6d792039207461736b000000000000000000000000000000000000000000000081525062000333640100000000026401000000009004565b6200032d6040805190810160405280600a81526020017f6d79203130207461736b0000000000000000000000000000000000000000000081525062000333640100000000026401000000009004565b62000478565b6001600081548092919060010191905055506060604051908101604052806001548152602001828152602001600015158152506000806001548152602001908152602001600020600082015181600001556020820151816001019080519060200190620003a2929190620003c9565b5060408201518160020160006101000a81548160ff02191690831515021790555090505050565b828054600181600116156101000203166002900490600052602060002090601f016020900481019282601f106200040c57805160ff19168380011785556200043d565b828001600101855582156200043d579182015b828111156200043c5782518255916020019190600101906200041f565b5b5090506200044c919062000450565b5090565b6200047591905b808211156200047157600081600090555060010162000457565b5090565b90565b61081280620004886000396000f3fe608060405260043610610062576000357c0100000000000000000000000000000000000000000000000000000000900463ffffffff16806351b3503b14610067578063672385621461012f578063b80356c3146101f7578063f4b2a46e14610222575b600080fd5b34801561007357600080fd5b5061012d6004803603602081101561008a57600080fd5b81019080803590602001906401000000008111156100a757600080fd5b8201836020820111156100b957600080fd5b803590602001918460018302840111640100000000831117156100db57600080fd5b91908080601f016020809104026020016040519081016040528093929190818152602001838380828437600081840152601f19601f8201169050808301925050505050505091929192905050506102e8565b005b34801561013b57600080fd5b506101f56004803603602081101561015257600080fd5b810190808035906020019064010000000081111561016f57600080fd5b82018360208201111561018157600080fd5b803590602001918460018302840111640100000000831117156101a357600080fd5b91908080601f016020809104026020016040519081016040528093929190818152602001838380828437600081840152601f19601f820116905080830192505050505050509192919290505050610489565b005b34801561020357600080fd5b5061020c61051d565b6040518082815260200191505060405180910390f35b34801561022e57600080fd5b5061025b6004803603602081101561024557600080fd5b8101908080359060200190929190505050610523565b604051808481526020018060200183151515158152602001828103825284818151815260200191508051906020019080838360005b838110156102ab578082015181840152602081019050610290565b50505050905090810190601f1680156102d85780820380516001836020036101000a031916815260200191505b5094505050505060405180910390f35b6000600190505b6001548111151561048557600080828152602001908152602001600020600101600590805460018160011615610100020316600290046103309291906105f2565b508160069080519060200190610347929190610679565b50600560405160200180828054600181600116156101000203166002900480156103a85780601f106103865761010080835404028352918201916103a8565b820191906000526020600020905b815481529060010190602001808311610394575b505091505060405160208183030381529060405280519060200120600781905550600660405160200180828054600181600116156101000203166002900480156104295780601f10610407576101008083540402835291820191610429565b820191906000526020600020905b815481529060010190602001808311610415575b505091505060405160208183030381529060405280519060200120600881905550600854600754141561047857600080828152602001908152602001600020600101600061047791906106f9565b5b80806001019150506102ef565b5050565b60016000815480929190600101919050555060606040519081016040528060015481526020018281526020016000151581525060008060015481526020019081526020016000206000820151816000015560208201518160010190805190602001906104f6929190610741565b5060408201518160020160006101000a81548160ff02191690831515021790555090505050565b60015481565b6000602052806000526040600020600091509050806000015490806001018054600181600116156101000203166002900480601f0160208091040260200160405190810160405280929190818152602001828054600181600116156101000203166002900480156105d55780601f106105aa576101008083540402835291602001916105d5565b820191906000526020600020905b8154815290600101906020018083116105b857829003601f168201915b5050505050908060020160009054906101000a900460ff16905083565b828054600181600116156101000203166002900490600052602060002090601f016020900481019282601f1061062b5780548555610668565b8280016001018555821561066857600052602060002091601f016020900482015b8281111561066757825482559160010191906001019061064c565b5b50905061067591906107c1565b5090565b828054600181600116156101000203166002900490600052602060002090601f016020900481019282601f106106ba57805160ff19168380011785556106e8565b828001600101855582156106e8579182015b828111156106e75782518255916020019190600101906106cc565b5b5090506106f591906107c1565b5090565b50805460018160011615610100020316600290046000825580601f1061071f575061073e565b601f01602090049060005260206000209081019061073d91906107c1565b5b50565b828054600181600116156101000203166002900490600052602060002090601f016020900481019282601f1061078257805160ff19168380011785556107b0565b828001600101855582156107b0579182015b828111156107af578251825591602001919060010190610794565b5b5090506107bd91906107c1565b5090565b6107e391905b808211156107df5760008160009055506001016107c7565b5090565b9056fea165627a7a7230582045808cd3ad0fc43308eb0313abf6492de883db62ae4756ac4d70dba47d83f3df0029",
  "source": "pragma solidity >=0.4.22 <0.9.0;\r\n\r\ncontract myTodoList {\r\n\r\n    // Model a Task\r\n    struct Task {\r\n        uint id;\r\n        string content;\r\n        bool completed;\r\n    }\r\n\r\n    // Read/write Tasks\r\n    mapping(uint => Task) public Tasks;\r\n\t\r\n\t// Store Tasks Count\r\n    uint public TasksCount = 0;\r\n\r\n    function addTask (string memory _content) public {\r\n        TasksCount ++;\r\n        Tasks[TasksCount] = Task(TasksCount, _content, false);\r\n\r\n    }\r\n    \r\n    Task TaskTemp;\r\n    string comparedContent;\r\n    string contentClicked;\r\n    bytes32 a;\r\n    bytes32 b;\r\n\r\n    function deductTask (string memory _contentClicked) public {\r\n\r\n        uint i ;\r\n        for(i = 1; i <= TasksCount; i++) {\r\n             comparedContent = Tasks[i].content; \r\n             contentClicked = _contentClicked;\r\n\r\n             //can not compare strings directly, need to hash them first \r\n             a = keccak256(abi.encodePacked(comparedContent));\r\n\r\n             b = keccak256(abi.encodePacked(contentClicked));\r\n\r\n             if(a == b){\r\n                 delete Tasks[i].content;\r\n              }\r\n        }\r\n  \r\n    }\r\n\r\n\t\r\n    constructor () public {\r\n        addTask(\"my 1 task\");\r\n        addTask(\"my 2 task\");\r\n        addTask(\"my 3 task\");\r\n        addTask(\"my 4 task\");\r\n        addTask(\"my 5 task\");\r\n        addTask(\"my 6 task\");\r\n        addTask(\"my 7 task\");\r\n        addTask(\"my 8 task\");\r\n        addTask(\"my 9 task\");\r\n        addTask(\"my 10 task\");\r\n    }\r\n\r\n}",
  "sourcePath": "C:/Users/mark/blockchain/my-todo-list/contracts/myTodoList.sol",
  "compiler": {
    "name": "solc",
    "version": "0.5.0+commit.1d4f565a.Emscripten.clang"
  },
  "schemaVersion": "3.0.1",
  "updatedAt": "2021-07-04T12:28:29.581Z",
  "devdoc": {
    "methods": {}
  },
  "userdoc": {
    "methods": {}
  }
}